:020000040800F2
:100000002806002001010008253D00084B330008A8
:10001000213D000829060008C14500080000000035
:100020000000000000000000000000008D3D0008FE
:10003000E108000800000000613D00088F3D000855
:100040001B0100081B0100081B0100081B01000820
:100050001B0100081B0100081B0100081B01000810
:100060001B0100081B0100081B010008A50800086F
:100070001B0100081B0100081B0100081B010008F0
:100080001B0100081B010008C50400081B01000833
:100090001B0100082D0600081B0100081B010008B9
:1000A0001B0100089D3E00081B0100081B01000801
:1000B000AD3E00081B0100081B0100081B010008E1
:1000C0001B0100081B0100081B0100081B010008A0
:1000D0001B010008B14500081B0100081B010008B6
:1000E0001B0100081B0100081B010008DFF80CD0F1
:1000F00000F0C6F9004800475D46000828060020C9
:100100000648804706480047FEE7FEE7FEE7FEE7B1
:10011000FEE7FEE7FEE7FEE7FEE7FEE7453E0008F6
:10012000ED000008202A04DB203A21FA02F0002129
:10013000704721FA02F3D040C2F1200291400843F7
:10014000194670472DE9FE4F81EA030404F000448C
:1001500021F0004100944FF0000B23F0004350EADF
:1001600001045ED052EA03045BD0C3F30A54C1F326
:100170000A552C44A4F2F3340194A0FB0254C1F3B9
:10018000130141F48011C3F3130343F4801301FB03
:10019000024400FB034E840A970A44EA815447EA6A
:1001A0008357A4FB076802958D0A05FB07854FEA74
:1001B000932C04FB0C542705029D4FEA065847EA8E
:1001C0001637B5EB08056EEB070C870E920E47EA63
:1001D000811742EA8312A7FB0201B6EB0B0164EB25
:1001E00000042B0D43EA0C335E1844EB1C50DA4636
:1001F0005146E7FB0201C5F313044FEA0B3343EA10
:1002000014534FEA0432019C43EA0603A4F10C04A0
:100210000294009CCDE900B400F0E4F803B0BDE81E
:10022000F08F00200146F9E72DE9F04D81EA030443
:1002300004F0004B21F0004514464FF0000A23F073
:10024000004150EA050220D054EA01021DD0C5F356
:100250000A570246C5F31303C1F31300C1F30A564C
:1002600040F4801543F48013A7EB0608101BD64614
:1002700008F2FD3873EB050002D308F1010801E034
:1002800092185B41B8F1000F03DA00200146BDE887
:10029000F08D00204FF48011064684460EE0171BB7
:1002A00073EB050705D3121B63EB050306434CEA0A
:1002B000010C49084FEA300092185B4150EA0107EF
:1002C000EDD152EA030012D082EA040083EA05016C
:1002D000084305D0101BAB4106D20122002306E0E3
:1002E00000224FF0004302E06FF0010253101AEBBE
:1002F00006004CEB085110EB0A0041EB0B01BDE886
:10030000F04D00F060B80EB540F23341029100218B
:10031000CDE900110A460B4600F064F803B000BDB9
:1003200001F0004330B421F0004150EA010206D050
:100330000A0DA2F56072C1F31301002A02DC30BC81
:1003400000207047440F44EAC104C100E01830BCEB
:1003500000EBC250AFF300800029A8BF7047401CDB
:10036000490008BF20F00100704710B4B0FA80FCCB
:1003700000FA0CF050EA010404BF10BC704749B108
:10038000CCF1200421FA04F411FA0CF118BF012178
:1003900021430843A3EB0C01CB1D4FEA00614FEA58
:1003A000102042BF002010BC704700EBC350104427
:1003B0000029A4BF10BC7047401C490008BF20F0B2
:1003C000010010BC704710B5141E73F1000408DA68
:1003D000401C41F1000192185B411A4301D120F009
:1003E000010010BD2DE9F04D92469B4611B1B1FAC6
:1003F00081F202E0B0FA80F22032904600F052F82A
:1004000004460F4640EA0A0041EA0B0153465A46A9
:10041000084313D0114653EA010019D0C8F1400235
:100420005046FFF77FFE05460E4650465946424667
:1004300000F038F8084305D0012004E02046394692
:10044000BDE8F08D0020054346EAE0762C433743B3
:100450000A986305E40AA0EB08000022FD0A44EABA
:1004600047540A3002D500200146E9E7010510197A
:100470006941DDE9084500196941BDE8F04DA2E791
:10048000064C074D06E0E06840F0010394E80700E1
:1004900098471034AC42F6D3FFF72CFE984700087B
:1004A000B8470008202A04DB203A00FA02F10020B5
:1004B00070479140C2F1200320FA03F319439040A2
:1004C0007047000010B5024800F043FB10BD00006B
:1004D0003000002070B5044600252068806800F0D8
:1004E0000100F0B12068806820F001002168886078
:1004F00001F01AFC05460EE001F016FC401B022834
:1005000009D9A06A40F01000A062E06A40F0010042
:10051000E062012070BD2068806800F001000028C2
:10052000EAD10020F6E770B505466C6AA06A00F0D3
:100530005000E0B9A06A40F40070A06220688068B2
:1005400000F46020B0F5602F0DD1E06858B9A06AC2
:1005500020F48070A062A06A00F4805018B9A06AEC
:1005600040F00100A062204600F0F0FA03E0206AAB
:10057000016B2846884770BD70B505466C6AA06A55
:1005800040F04000A062E06A40F00400E0622046D3
:1005900000F0DEFA70BD70B50446656A284600F0CA
:1005A000D6FA70BD38B504460025002000902068BA
:1005B000806800F0010080BB2068806840F0010086
:1005C00021688860164800681649B0FBF1F0009079
:1005D00002E00098401E009000980028F9D101F038
:1005E000A3FB054613E001F09FFB401B02280ED938
:1005F000A06A40F01000A062E06A40F00100E062F2
:1006000000BF002084F8240000BF012038BD20680E
:10061000806800F001000028E5D00020F6E7000027
:100620001C00002040420F0000BFFEE710B502484A
:1006300000F070FD10BD0000A400002000B58BB0DC
:100640000C480D4988630D4808630020069001207E
:100650000590002007900120089000200190029052
:10066000039004900120099001A9034800F0BEFC0A
:100670000BB000BD04020020A4000020E80100200F
:100680002DE9F04104460D46002700260DB9666BA2
:1006900000E0A66B206800F5D87000EB051000683C
:1006A00000F00400B060B06858B9206800F5D87058
:1006B00000EB0510006840F2FF7101EA5050306015
:1006C0000AE0206800F5D87000EB051000686FF0B4
:1006D000604101EAD0007060206800F5D87000EB3E
:1006E0000510006800F00200F060206800F5D87086
:1006F00000EB0510406800F00F00306135622068A3
:1007000000F5D87000EB05104068C0F30720F061D9
:10071000206800F5D87000EB0510806830752068FF
:1007200000F5D87000EB05108068010A717520682B
:1007300000F5D87000EB05108068010CB1752068D9
:1007400000F5D87000EB05108068000EF075206889
:1007500000F5D87000EB0510C0683076206800F511
:10076000D87000EB0510C068010A7176206800F5AA
:10077000D87000EB0510C068010CB176206800F558
:10078000D87000EB0510C068000EF0764DB920203F
:100790002168C8602068406920F00A00216848612B
:1007A00008E02020216808612068406920F050009E
:1007B0002168486194F83C70222F01D0322F05D176
:1007C0002068406920F40F4021684861CDB994F851
:1007D0003C00422804D0622806D072280CD107E0E1
:1007E000122084F83C000BE0322084F83C0007E043
:1007F000522084F83C0003E0012084F83C0000BF54
:1008000019E094F83C00522804D0622806D07228DF
:100810000CD107E0122084F83C000BE0222084F881
:100820003C0007E0422084F83C0003E0012084F80B
:100830003C0000BF00BF204600F00EFF0020BDE8D6
:10084000F08110B504462068406920F0010021685D
:10085000486194F83C00122805D12068406920F4D2
:100860000F402168486194F83C00422804D0522887
:1008700006D072280CD107E0222084F83C000BE05F
:10088000322084F83C0007E0622084F83C0003E05A
:10089000012084F83C0000BF00BF204600F002FFAA
:1008A000002010BD10B5024800F056FF10BD00003A
:1008B0006000002030B590F840500124AC40C56B7A
:1008C0006C60046863604468102C04D10468A26002
:1008D0000468E16003E00468A1600468E26030BD80
:1008E00070470000F8B5044600260020009000BFC5
:1008F00094F82400012801D10220F8BD012084F8D9
:10090000240000BF2046FFF7E5FD0646002E62D119
:10091000A06A20F4885040F00200A062022001F09A
:1009200003FB30490968B1FBF0F04000009002E0A1
:100930000098401E009000980028F9D12046FFF74B
:1009400031FE2068806840F008002168886001F06E
:10095000EBF9054611E001F0E7F9401B0A280CD934
:10096000A06A20F0020040F01000A06200BF00204A
:1009700084F8240000BF0120BFE72068806800F0F1
:1009800008000028E7D12068806840F00400216852
:10099000886001F0C9F9054611E001F0C5F9401B76
:1009A0000A280CD9A06A20F0020040F01000A062D2
:1009B00000BF002084F8240000BF01209DE72068CC
:1009C000806800F004000028E7D1A06A20F002004F
:1009D00040F00100A06200BF002084F8240000BFA6
:1009E00030468AE71C0000207047000038B50246F8
:1009F00000230020009000BF92F82400012801D1BC
:100A0000022038BD012082F8240000BF4868072872
:100A100012D21068406B0C79641E04EB84051F240D
:100A2000AC40A0430D796D1E05EB85050C68AC400C
:100A300020431468606327E048680D2812D21068CC
:100A4000006B0C79E41F04EB84051F24AC40A04329
:100A50000D79ED1F05EB85050C68AC40204314684B
:100A6000206311E01068C06A0C790D3C04EB84052A
:100A70001F24AC40A0430D790D3D05EB85050C68A6
:100A8000AC4020431468E06208680A2812D310685A
:100A9000C0680C780A3C04EB44050724AC40A04332
:100AA0000D780A3D05EB45058C68AC402043146881
:100AB000E0600FE0106800690C7804EB440507243F
:100AC000AC40A0430D7805EB45058C68AC40204355
:100AD000146820610868102802D00868112827D1FE
:100AE000174C1068A0421ED11068806800F4000006
:100AF000F0B91068806840F400001468A0600868CD
:100B0000102815D10F4800680F4CB0FBF4F000EB33
:100B100080004000009002E00098401E0090009885
:100B20000028F9D104E0906A40F02000906201238F
:100B300000BF002082F8240000BF184661E70000D3
:100B4000002401401C00002040420F007047704705
:100B5000704710B504462068406800F02000202847
:100B60002FD12068006800F00200022829D1A06A75
:100B700000F0100018B9A06A40F40070A06220686C
:100B8000806800F46020B0F5602F13D1E06888B968
:100B90002068406820F0200021684860A06A20F4A6
:100BA0008070A062A06A00F4805018B9A06A40F07A
:100BB0000100A0622046FFF7C9FF6FF01200216814
:100BC00008602068406800F0800080283BD12068E1
:100BD000006800F00400042835D1A06A00F010007D
:100BE00018B9A06A40F40050A0622068806800F440
:100BF000E040B0F5E04F0DD02068406800F4806020
:100C0000D0B92068806800F46020B0F5602F13D15F
:100C1000E06888B92068406820F08000216848605A
:100C2000A06A20F48050A062A06A00F4807018B915
:100C3000A06A40F00100A0622046FFF7D5FE6FF0E9
:100C40000C00216808602068406800F040004028DF
:100C50000FD12068006800F0010050B1A06A40F494
:100C60008030A062204600F0A7F86FF001002168F4
:100C7000086010BD2DE9F04104460027002500263C
:100C8000A84614B90120BDE8F081A06810B16069E0
:100C900000B100BFA06A30B90020E06284F82400EF
:100CA000204600F08BF82046FFF714FC0746A06AA8
:100CB00000F01000002873D1002F71D1A06A20F439
:100CC000885040F00200A062E16960680843E16872
:100CD00040EA41000643A068B0F5807F02D0A068DA
:100CE000012802D14FF4807000E0002005436069C4
:100CF000012811D1E06838B9A069401E4FF40061A5
:100D000041EA4030054307E0A06A40F02000A062BD
:100D1000E06A40F00100E0622068406820F4694029
:100D20002843216848602068806821490840304392
:100D300021688860A068B0F5807F02D0A068012893
:100D400002D14FF4807000E00020B0F5807F03D125
:100D5000208A401E4FEA00582068C06A20F47000C4
:100D600040EA08002168C86220688068114908408C
:100D7000B04208D10020E062A06A20F0020040F0FA
:100D80000100A06211E0A06A20F0020040F0100013
:100D9000A062E06A40F00100E062012705E0FFE7A1
:100DA000A06A40F01000A062012738466BE70000FF
:100DB000FDF7E1FFFE0E1FFF7047000010B586B083
:100DC00004462149206888423BD100BF1F48806902
:100DD00040F400701D4988610846806900F4007085
:100DE000019000BF00BF062002900320039002A9DB
:100DF000174800F005FE17481749086000204860B2
:100E00000021154881608021C1608900016189004D
:100E10004161202181610021C16100F06BFD18B1A9
:100E20007D210EA003F0CEFB00BF0B482062446280
:100E300000BF00220221122001F023F8122001F04D
:100E400013F806B010BD000000240140001002405D
:100E50000008014008000240600000202E2E2F53A1
:100E600072632F6164632E63000000002DE9F0417E
:100E700004460D461646002757492068884203D08D
:100E800056492068884205D15348001D006800F487
:100E9000702000E0002000287ED100BF94F82400DC
:100EA000012802D10220BDE8F081012084F824004D
:100EB00000BF2046FFF776FB0746002F6DD1A06AE2
:100EC00040F60161884340F48070A0624349206885
:100ED000884209D14048001D006800F4702008B91C
:100EE000012002E0002000E0012078B1A06A20F497
:100EF0008010A0622068406800F4806000B3A06A9F
:100F000020F4005040F48050A06219E0A06A40F440
:100F10008010A06230492068884203D02F492068A1
:100F2000884205D12C48001D006800F4806000E074
:100F3000002028B1A06A20F4005040F48050A06244
:100F4000A06A00F4805020B1E06A20F00600E06260
:100F500001E00020E06200BF002084F8240000BF10
:100F60001F48216A88621F48216AC8621E48216A98
:100F700008636FF00200216808602068806840F410
:100F8000807021688860226802F14C0133462A464D
:100F9000206A00F0E7FC01E01AE014E020688068B5
:100FA00000F46020B0F5602F06D12068806840F41E
:100FB000A000216888600CE02068806840F4801000
:100FC0002168886005E000BF002084F8240000E06C
:100FD0000127384667E7000000240140002801404F
:100FE00027050008970500087905000830B5024676
:100FF00000230C7D012000FA04F31068D0F80002F1
:1010000020F47C5001254C6A45EA042420431468EE
:10101000C4F800021068D0F81C0298431468C4F8A1
:101020001C02C869E8B91068D0F80C02984314682B
:10103000C4F80C02888880B28C8940EA04441068A5
:1010400000F510704D6940F83540088880B20C8971
:1010500040EA0444106800F510704D6900EBC500CB
:101060004460C86901281DD11068D0F80C021843EB
:101070001468C4F80C02888880B20C8840EA0444E2
:10108000106800F510704D6940F83540888980B2CD
:101090000C8940EA0444106800F510704D6900EBBB
:1010A000C5004460886938B91068D0F804029843D4
:1010B0001468C4F8040206E01068D0F8040218436B
:1010C0001468C4F80402086938B91068D0F814022A
:1010D00098431468C4F8140206E01068D0F81402AB
:1010E00018431468C4F81402086A012806D110686D
:1010F000D0F81C0218431468C4F81C021068D0F819
:10110000000220F001001468C4F80002002030BD85
:10111000704700002DE9F041044600250026002715
:10112000A8462068C068C0F3001520684069C0F375
:10113000C0062DB126B148F4007810202168C8609F
:1011400020680069C0F3001520684069C0F380166C
:101150002DB126B148F4806810202168086120680C
:10116000406900F0010000283BD0206880687A497F
:101170000840884201D1012000E000200546206897
:10118000806876490840884201D1012000E00020B3
:1011900006462068806872490840884201D10120D3
:1011A00000E0002007460DB906B9D7B12068806875
:1011B000C0F3400520688068C0F34026206880683E
:1011C00000F001070DB906B91FB12046FFF739FB42
:1011D00001E048F40068206880686249084321689B
:1011E00088602068C06800F0030520684069C0F38B
:1011F000400625B11EB100212046FFF741FA2068C4
:10120000006900F0030520684069C0F3001625B1AD
:101210001EB101212046FFF733FA206C40EA080096
:1012200020642068806900F0010520684069C0F3EF
:10123000002620684069C0F3C0372DB126B11FB128
:10124000206C40F00100206420688069C0F34005F4
:1012500020684069C0F3402620684069C0F3C03769
:101260002DB126B11FB1206C40F00200206420682F
:101270008069C0F3800520684069C0F3802620683B
:101280004069C0F3C0372DB126B11FB1206C40F0CA
:10129000040020642068806900F0700008B9012013
:1012A00000E00020054620684069C0F3C0262068A1
:1012B0004069C0F3C03795BB8EB387B3206880699F
:1012C00000F07005402D1BD006DC102D09D0202D1C
:1012D0000CD0302D24D10EE0502D16D0602D1FD112
:1012E00018E0206C40F0080020641AE0206C40F008
:1012F0001000206415E0206C40F02000206410E015
:10130000206C40F0400020640BE0206C40F0800036
:10131000206406E0206C40F48070206401E007E067
:1013200000BF00BF2068806920F0700021688861DC
:10133000206C78B1042021684860012084F83C00CA
:101340002068406948F65B718843216848612046FF
:10135000FFF7DEFEBDE8F081010000040001000897
:1013600000000110090501002DE9F04104460027A5
:101370000026002514B90120BDE8F08194F83C0056
:1013800028B9002084F83D00204600F0A5F802208E
:1013900084F83C002068006820F0020021680860A2
:1013A0002068006840F001002168086000F0BCFC83
:1013B00006460EE000F0B8FC801B0A2809D903207D
:1013C00084F83C0000BF002084F83D0000BF0320EB
:1013D000D2E72068406800F001000028EAD02068C9
:1013E000406800F00100002867D0A069012802D100
:1013F00045F0800501E025F08005E069012802D173
:1014000045F0400501E025F04005206A012802D1A1
:1014100045F0200501E025F02005606A012802D191
:1014200045F0100501E025F01005A06A012802D161
:1014300045F0080501E025F00805E06A012802D121
:1014400045F0040501E025F004052068006820F05F
:10145000FC00284321680860D4E90201084321699F
:101460000843616908436168491E08432168C861EF
:101470002068006820F001002168086000F054FC3A
:1014800006460EE000F050FC801B0A2809D9032014
:1014900084F83C0000BF002084F83D0000BF03201A
:1014A0006AE72068406800F001000028EAD120685F
:1014B000406800F0010000B90127012F06D100208B
:1014C0002064012084F83C00002055E7042084F8C3
:1014D0003C00012050E7000010B586B004461849D2
:1014E0002068884229D100BF1648C06940F00070CA
:1014F0001449C8610846C06900F00070019000BF3F
:1015000000BFC814029000200390049002A90E4866
:1015100000F076FA4FF480500290022003900320EE
:10152000059002A9084800F06BFA00221146152028
:1015300000F0A7FC152000F097FC06B010BD0000DD
:10154000006400400010024000080140024689B9D2
:1015500092F83C0022280BD092F83C00422807D099
:1015600092F83C00622803D092F83C00722801D126
:1015700002207047012911D192F83C0032280BD08B
:1015800092F83C00522807D092F83C00622803D021
:1015900092F83C00722801D10220EAE700BF92F8DD
:1015A0003D00012801D10220E3E7012082F83D003F
:1015B00000BFC9B992F83C00122804D0322806D0E6
:1015C00052280CD107E0422082F83C000BE0622058
:1015D00082F83C0007E0722082F83C0003E0222001
:1015E00082F83C0000BF19E092F83C00122804D0B9
:1015F000222806D042280CD107E0522082F83C0075
:101600000BE0622082F83C0007E0722082F83C0088
:1016100003E0322082F83C0000BF00BF00201064CD
:101620001068406948F6017318431368586100BF99
:10163000002082F83D0000BF31B91068406940F0D9
:101640000A001368586105E01068406940F05000D6
:101650001368586100208CE70168496941F0500126
:10166000026851610C4A0168914214D1816B09688A
:1016700001B900E000BF00BF002105E0826B143219
:10168000525C064B5A54491C826B12698A42F5D847
:101690000121034A117070470064004020000020BF
:1016A0002A0000207047000070B50446002594F819
:1016B0002100022803D00420A063012548E020680F
:1016C000006820F00E00216808602068006820F0A3
:1016D0000100216808601F492068884201D101206B
:1016E00026E01C4914312068884201D110201FE0F7
:1016F000184928312068884201D1801518E0154921
:101700003C312068884201D1801411E011495031E8
:101710002068884202D14FF4803009E00D496431DD
:101720002068884202D14FF4801001E04FF08070B1
:10173000084908394860012084F8210000BF0020D2
:1017400084F8200000BF606B10B12046616B8847B1
:10175000284670BD0800024070B50446E06B05687D
:101760002068066894F8401004208840284000282B
:1017700046D006F00400002842D02068006800F03F
:10178000200028B92068006820F004002168086063
:1017900057492068884201D1042027E05449143178
:1017A0002068884201D1402020E05149283120683A
:1017B000884201D1001519E04D493C31206888422A
:1017C00002D14FF4804011E04949503120688842ED
:1017D00002D14FF4802009E04549643120688842F5
:1017E00002D14FF4800001E04FF080604049083999
:1017F0004860E06A00287AD02046E16A884776E0AF
:1018000094F84010022088402840A0B306F002005F
:1018100088B32068006800F0200040B920680068A4
:1018200020F00A0021680860012084F82100304976
:101830002068884201D1022028E02D491431206817
:10184000884201D1202021E029492831206888429E
:1018500001D140151AE026493C312068884202D166
:101860004FF4005012E0224950312068884203D1E1
:101870004FF400300AE017E01D49643120688842C7
:1018800002D14FF4001001E04FF000701849083900
:10189000486000BF002084F8200000BFA06A30B379
:1018A0002046A16A884722E094F84010082088402A
:1018B0002840E0B106F00800C8B12068006820F0B8
:1018C0000E002168086094F8401001208840E16B08
:1018D00048600120A06384F8210000BF002084F844
:1018E000200000BF206B10B12046216B884770BDDF
:1018F000080002400146002209B901207047184B38
:101900000868C01A1423B0FBF3F080000864144880
:101910000838C863022081F821000868026843F68D
:10192000F0708243D1E901031843CB6818430B6977
:1019300018434B6918438B691843CB69184302431A
:101940000868026000208862C86208634863886390
:10195000012081F82100002081F8200000BFCDE7A0
:10196000080002402DE9F04104460D4616461F4688
:101970004FF0000800BF94F82000012802D1022097
:10198000BDE8F081012084F8200000BF94F8210018
:1019900001282CD1022084F821000020A0632068B7
:1019A000006820F00100216808603B463246294665
:1019B0002046FEF77FFFE06A30B12068006840F003
:1019C0000E00216808600BE02068006820F0040029
:1019D000216808602068006840F00A0021680860FB
:1019E0002068006840F001002168086006E000BF40
:1019F000002084F8200000BF4FF002084046BFE7F7
:101A00002DE9F847034600240020002584460027DE
:101A100000226EE14FF0010808FA02F4D1F80080CC
:101A200008EA0400A0427DD1DFF8D0A2D1F80480FA
:101A3000A8EB0A09D0453AD014DCB8F1030F50D016
:101A400009DCB8F1000F31D0B8F1010F1CD0B8F1AA
:101A5000020F49D120E0B8F1110F18D0B8F1120FE0
:101A600042D11EE0B9F5881F25D006DCB9F5803FCC
:101A700020D0B9F5801F37D11AE0B9F5001F18D072
:101A8000B9F5041F30D117E0D1F80CC02DE0D1F822
:101A90000C8008F1040C28E0D1F80C8008F1080C47
:101AA00023E0D1F80C8008F10C0C1EE000BF00BF51
:101AB00000BF00BF00BF00BFD1F80880B8F1000F21
:101AC00002D14FF0040C0BE0D1F80880B8F1010FFF
:101AD00003D14FF0080C1C6102E04FF0080C5C6170
:101AE00003E04FF0000C00E000BF00BFFF2801D86A
:101AF000984601E003F104084646FF2802D84FEA61
:101B0000820803E0A2F108084FEA88084746D6F8A1
:101B100000804FF00F0909FA07F928EA09080CFAC2
:101B200007F900E088E048EA0908C6F80080D1F823
:101B3000048008F08058B8F1805F7DD100BFDFF8E5
:101B4000C081D8F8188048F00108DFF8B491C9F8CE
:101B50001880C846D8F8188008F00108CDF8008031
:101B600000BF00BF4FEAB9384FEA920958F8295030
:101B70004FEA82784FEA18794FF00F0808FA09F80F
:101B800025EA0805DFF87C81434502D14FF00008C3
:101B900016E0DFF87481434502D14FF001080FE0F1
:101BA000DFF86881434502D14FF0020808E0DFF812
:101BB0006081434502D14FF0030801E04FF0040873
:101BC0004FEA82794FEA197908FA09F848EA0505D7
:101BD000DFF840814FEA920948F82950D1F8048093
:101BE00008F48038B8F5803F0AD1DFF82C81D8F8A6
:101BF000008048EA0008DFF82091C9F8008009E079
:101C0000DFF81481D8F8008028EA0008DFF808918E
:101C1000C9F80080D1F8048008F40038B8F5003F16
:101C200010D1DFF8F48008F10408D8F8008048EA01
:101C30000008DFF8E49000E05AE009F10409C9F86F
:101C400000800DE0DFF8D08008F10408D8F80080AB
:101C500028EA0008DFF8C09009F10409C9F80080FB
:101C6000D1F8048008F48018B8F5801F0ED1DFF891
:101C7000A88008F10808D8F8008048EA0008DFF8D2
:101C8000989009F10809C9F800800DE0DFF8888014
:101C900008F10808D8F8008028EA0008DFF87890F2
:101CA00009F10809C9F80080D1F8048008F4001887
:101CB000B8F5001F0ED1DFF8608008F10C08D8F8E5
:101CC000008048EA0008DFF8509009F10C09C9F8D3
:101CD00000800DE0DFF8408008F10C08D8F80080A3
:101CE00028EA0008DFF8309009F10C09C9F80080F3
:101CF000521C102AFFF48EAEBDE8F88700001110C8
:101D00000010024000080140000C0140001001409A
:101D10000014014008000140000401400AB10161C3
:101D200001E00B0403617047014800687047000040
:101D3000100000200348006803490978084401495D
:101D400008607047100000201800002010B50848F7
:101D5000006840F0100006490860032000F0D0F849
:101D6000002000F007F800F02BF8002010BD000064
:101D70000020024070B504460E4800784FF47A7196
:101D8000B1FBF0F00C490968B1FBF0F5284600F012
:101D90006AFD08B1012070BD102C07D20022214637
:101DA000501E00F06EF80548046001E00120F2E7E3
:101DB0000020F0E7180000201C0000201400002084
:101DC00008B500BF2648806940F0010024498861B9
:101DD0000846806900F00100009000BF00BF00BF0E
:101DE0000846C06940F08050C8610846C06900F0EC
:101DF0008050009000BF00BF032000F081F8002257
:101E000011466FF00B0000F03CF8002211466FF015
:101E10000A0000F036F8002211466FF0090000F0C9
:101E200030F800221146501F00F02BF80022114616
:101E3000101F00F026F800221146901E00F021F835
:101E400000221146501E00F01CF800BF05494868EA
:101E500020F0E06040F00070486000BF08BD000066
:101E6000001002400000014000BF00F01F020121ED
:101E700091404209920002F1E022C2F8001100BF35
:101E800070472DE9F05F80460D461646002701F0A9
:101E90004BFF074639462A46334601F00700C0F19A
:101EA000070ABAF1040F02D94FF0040A01E0C0F1A9
:101EB000070AD14600F1040ABAF1070F02D24FF027
:101EC000000A01E0A0F1030AD4464FF0010A0AFA21
:101ED00009FAAAF1010A0AEA020A0AFA0CFA4FF010
:101EE000010B0BFA0CFBABF1010B0BEA030B4AEAFB
:101EF0000B042146404601F01FFFBDE8F09F0000A3
:101F000000BF00F00702064B19684FF6FF031940A7
:101F1000044B0B4343EA0221014B196000BF704799
:101F20000CED00E00000FA052DE9F04385B006460F
:101F30003DA30FCB01AC0FC43FA0006800904FF051
:101F40000008002500270024A146012E30D0022ED3
:101F500058D0102E61D139484468006800F0807074
:101F600000B301A8C4F38341475C04F4803070B12E
:101F700032484068C0F340401DF8008004F48030CF
:101F800040B12F48B0FBF8F000FB07F502E02D4808
:101F900007FB00F52948406800F48000B0F5800F89
:101FA00001D1A94603E068000321B0FBF1F935E057
:101FB0002248046A04F44070B0F5807F05D104F033
:101FC000020010B14FF400491BE004F44070B0F57A
:101FD000007F07D11948406A00F0020010B149F6AD
:101FE00040490EE004F44070B0F5407F07D113483B
:101FF000006800F4003010B14FF2244901E04FF0C6
:1020000000090BE000F0A0F90C494968C1F38131E7
:10201000491C4900B0FBF1F900E000BF00BF484691
:1020200005B0BDE8F08300000203040506070809B7
:102030000A0B0C0D0E0F10100102000000100240E0
:1020400000127A0000093D00F8B50446002600257C
:10205000207800F0010000286BD000274348C069B9
:1020600000F0805070B900BF4048C06940F0805017
:102070003E49C8610846C06900F08050009000BF2A
:1020800000BF01273A48006800F48070B0B93848B2
:10209000006840F4807036490860FFF745FE064648
:1020A00006E0FFF741FE801B642801D90320F8BD3C
:1020B0002F48006800F480700028F2D02B48006A96
:1020C00000F440752DB3A08800F44070A84220D0E1
:1020D0002648006A20F44075012026490860002047
:1020E00008602248056205F0010090B1FFF71CFE70
:1020F000064608E0FFF718FE801B41F2883188424F
:1021000001D90320D3E71948006A00F00200002833
:10211000F0D01648006A20F4407061680843134903
:102120000862012F04D10846C06920F08050C861C0
:1021300000BF207800F00200022807D10B48406859
:1021400020F44040A168084308494860207800F026
:102150001000102807D10548406820F48000E1688D
:102160000843024948600020A1E700000010024037
:10217000007000404004424270B504460D460026FF
:102180006248006800F00700A8420ED25F4800686D
:1021900020F0070028435D4908600846006800F009
:1021A0000700A84201D0012070BD207800F0020095
:1021B000022807D15648406820F0F000A168084383
:1021C00053494860207800F0010000285DD0606825
:1021D000012806D14E48006800F4003090B9012073
:1021E000E2E76068022806D14948006800F0007004
:1021F00040B90120D8E74648006800F0020008B95D
:102200000120D1E74248406820F00300616808439C
:102210003F494860FFF788FD06466068012810D1F5
:1022200008E0FFF781FD801B41F28831884201D927
:102230000320B9E73648406800F00C000428F0D1CC
:1022400023E06068022810D108E0FFF76DFD801BD5
:1022500041F28831884201D90320A5E72C48406823
:1022600000F00C000828F0D10FE008E0FFF75CFD5B
:10227000801B41F28831884201D9032094E7244829
:10228000406800F00C000028F0D12048006800F001
:102290000700A8420ED91D48006820F00700284317
:1022A0001A4908600846006800F00700A84201D0FB
:1022B000012079E7207800F00400042807D11448B1
:1022C000406820F4E060E1680843114948602078E4
:1022D00000F00800082808D10D48406820F460503C
:1022E000216940EAC1000A49486000F03DF8084908
:1022F0004968C1F30311074A515CC84006490860A8
:102300000020FFF737FD00204EE7000000200240CC
:1023100000100240804700081C00002001480068AF
:10232000704700001C00002000B5FFF7F7FF0449CC
:102330004968C1F30221034A515CC84000BD000056
:10234000001002409047000800B5FFF7E7FF04497E
:102350004968C1F3C221034A515CC84000BD000076
:102360000010024090470008F0B585B00FF26C0CE9
:102370009CE8E01001A8A0E8E0101CA52D680095DD
:1023800000210022002300240020194D696801F07B
:102390000C05F5B1042D02D0082D19D101E0154826
:1023A00019E001ADC1F38346AC5D01F4803555B150
:1023B0000F4D6D68C5F340451DF805200D4D654373
:1023C000B5FBF2F302E00C4D04FB05F3184602E006
:1023D00000BF084800BF00BF05B0F0BD0203040500
:1023E000060708090A0B0C0D0E0F10100102000061
:1023F0000010024000127A0000093D00F8B50446C2
:102400000025207800F00100002878D0F8484068C6
:1024100000F00C0004280CD0F548406800F00C00D7
:10242000082811D1F248406800F48030B0F5803FB0
:102430000AD1EF48006800F4003000285FD06068DF
:1024400000285CD10120F8BD00BF6068B0F5803F76
:1024500006D1E748006840F48030E549086028E08C
:10246000606858B9E248006820F48030E0490860AC
:102470000846006820F4802008601AE06068B0F523
:10248000A02F0BD1DA48006840F48020D8490860BA
:102490000846006840F4803008600AE0D4480068CC
:1024A00020F48030D24908600846006820F480207B
:1024B000086000BF606888B1FFF736FC054606E09B
:1024C000FFF732FC401B642801D90320BBE7C84852
:1024D000006800F400300028F2D010E0FFF724FC80
:1024E000054606E0FFF720FC401B642801D90320C5
:1024F000A9E7BF48006800F400300028F2D1207836
:1025000000F00200022857D1B948406800F00C00E2
:1025100050B1B748406800F00C00082818D1B44802
:10252000406800F4803098B9B148006800F00200BB
:1025300020B12069012801D0012084E7AC4800685F
:1025400020F0F800616940EAC100A949086033E061
:102550002069E8B10120A7490860FFF7E5FB0546BF
:1025600006E0FFF7E1FB401B022801D903206AE7E0
:102570009F48006800F002000028F2D09C480068E4
:1025800020F0F800616940EAC1009949086013E051
:10259000002098490860FFF7C7FB054606E0FFF7F3
:1025A000C3FB401B022801D903204CE79048006878
:1025B00000F002000028F2D1207800F0080008287E
:1025C0002DD1A069B8B101208B490860FFF7ACFBA1
:1025D000054606E0FFF7A8FB401B022801D90320AF
:1025E00031E78348406A00F002000028F2D0012061
:1025F00001F0B8FB13E000207F490860FFF794FB6F
:10260000054606E0FFF790FB401B022801D9032096
:1026100019E77748406A00F002000028F2D12078DC
:1026200000F00400042873D100267148C06900F04E
:10263000805070B900BF6E48C06940F080506C494E
:10264000C8610846C06900F08050009000BF00BF1C
:1026500001266A48006800F48070B0B967480068D5
:1026600040F4807065490860FFF75EFB054606E0B0
:10267000FFF75AFB401B642801D90320E3E65F48BB
:10268000006800F480700028F2D000BFE0680128E4
:1026900006D15748006A40F001005549086227E01A
:1026A000E06858B95248006A20F0010050490862B9
:1026B0000846006A20F00400086219E0E068052876
:1026C0000BD14B48006A40F00400494908620846B3
:1026D000006A40F0010008620AE04548006A20F004
:1026E0000100434908620846006A20F004000862BD
:1026F00000BFE068A0B1FFF717FB054609E0FFF750
:1027000013FB401B41F28831884202D903209AE62C
:1027100022E03748006A00F002000028EFD012E003
:10272000FFF702FB054608E0FFF7FEFA401B41F207
:102730008831884201D9032085E62D48006A00F0DF
:1027400002000028F0D1012E05D12948C06920F0EF
:1027500080502749C86100BFE069C8B32448406879
:1027600000F00C00082860D0E069022848D1002061
:1027700020490866FFF7D8FA054606E0FFF7D4FAC5
:10278000401B022801D903205DE61948006800F0CB
:1027900000700028F2D1206AB0F5803F07D11448BC
:1027A000406820F40030A168084311494860D4E92A
:1027B000080108430E49496821F4741108430C4983
:1027C000486001200B490866FFF7AEFA054607E0AE
:1027D0002DE0FFF7A9FA401B022801D9032032E6B9
:1027E0000348006800F000700028F2D01FE00000ED
:1027F000001002400000424280044242007000404B
:1028000000200C490866FFF78FFA054606E0FFF73F
:102810008BFA401B022801D9032014E60648006801
:1028200000F000700028F2D101E001200BE600204A
:1028300009E600000000424200100240042808D1CE
:102840004FF0E021096941F004014FF0E0221161ED
:1028500007E04FF0E021096921F004014FF0E02288
:1028600011617047704770B504462546681EB0F187
:10287000807F01D301200FE0681E4FF0E021486106
:102880000F214FF0FF3001F057FA00204FF0E02108
:10289000886107200861002070BD10B5FFF7E2FFD6
:1028A00010BD70477047024600BF92F83C000128F7
:1028B00001D102207047012082F83C0000BF0220B5
:1028C00082F83D001068406820F07000136858607E
:1028D000106840680B681843136858601068806877
:1028E00020F0800013689860106880684B68184377
:1028F00013689860012082F83D0000BF002082F834
:102900003C0000BF00BFD5E710B504460CB901205C
:1029100010BD94F83D0028B9002084F83C00204602
:1029200000F00CF8022084F83D00211D206801F021
:10293000C5FA012084F83D000020E9E710B586B013
:1029400004462F492068884216D100BF2D4880696F
:1029500040F400602B4988610846806900F40060FB
:10296000019000BF00BF002201211920FFF789FA62
:102970001920FFF779FA40E02068B0F1804F2AD1A2
:1029800000BF2048C06940F001001E49C8610846E8
:10299000C06900F00100019000BF00BF0820029054
:1029A00000200390049002A91748FFF729F800BF00
:1029B0001649486820F4407040F0E06040F48070B0
:1029C000486000BF002211461C20FFF75AFA1C2065
:1029D000FFF74AFA11E00E49206888420DD100BF86
:1029E0000848C06940F002000649C8610846C0694D
:1029F00000F00200019000BF00BF06B010BD000053
:102A0000002C01400010024000080140000001407D
:102A10000004004001460868C06840F001000A68F0
:102A2000D0600868006840F001000A68106000206B
:102A300070472DE9F04104460D46002600BF94F88A
:102A40003C00012802D10220BDE8F081012084F879
:102A50003C0000BF022084F83D002068866826F014
:102A6000770626F47F4620688660286850283BD089
:102A70000CDC202860D004DC002853D0102865D15D
:102A800055E030285DD0402860D141E0602835D045
:102A900070280DD0B0F5805F03D0B0F5005F55D140
:102AA00015E02068806820F00700216888604EE00B
:102AB000D5E902136A68206801F048FA2068866840
:102AC00026F0770646F07706206886603FE0D5E975
:102AD00002136A68206801F039FA2068806840F4BF
:102AE00080402168886032E0EA686968206801F007
:102AF0000BFB5021206801F035FA28E0EA6869688C
:102B0000206801F04DFB6021206801F02BFA1EE0E7
:102B1000EA686968206801F0F7FA4021206801F04E
:102B200021FA14E00021206801F01CFA0FE01021C6
:102B3000206801F017FA0AE02021206801F012FA5B
:102B400005E03021206801F00DFA00E000BF00BF71
:102B5000012084F83D0000BF002084F83C0000BF45
:102B600000BF71E770472DE9F04104460D46164657
:102B700000BF94F83C00012802D10220BDE8F0819A
:102B8000012084F83C0000BF022084F83D0096B983
:102B9000EB68D5E90012206801F0CCFA2068806962
:102BA00020F00C002168886120688069A9680843CA
:102BB000216888613DE0042E13D1EB68D5E900124D
:102BC000206801F003FB2068806920F440602168E0
:102BD000886120688069A96840EA012021688861CD
:102BE00027E0082E12D1EB68D5E90012206801F029
:102BF0000CFB2068C06920F00C002168C8612068C7
:102C0000C069A96808432168C86112E0EB68D5E98A
:102C10000012206801F017FB2068C06920F44060B2
:102C20002168C8612068C069A96840EA012021685C
:102C3000C861012084F83D0000BF002084F83C00FA
:102C400000BF00BF9AE710B504460CB9012010BDC3
:102C500094F83D0028B9002084F83C00204600F09C
:102C60000CF8022084F83D00211D206801F026F9AF
:102C7000012084F83D000020E9E7704730B50446A4
:102C80000D4635B1042D0BD0082D10D00C2D1CD1C4
:102C900014E02068C06840F002002168C86015E0B8
:102CA0002068C06840F004002168C8600EE0206819
:102CB000C06840F008002168C86007E02068C0686C
:102CC00040F010002168C86000E000BF00BF012292
:102CD0002946206801F02CF92068006840F00100C6
:102CE00021680860002030BD10B5044620680069E6
:102CF000C0F34000D8B12068C068C0F34000B0B154
:102D00006FF0020021680861012020772068806947
:102D100000F0030018B12046FFF724FF05E020462D
:102D200000F0E8F8204600F085F9002020772068C0
:102D30000069C0F38000D8B12068C068C0F380008B
:102D4000B0B16FF00400216808610220207720688C
:102D5000806900F4407018B12046FFF703FF05E0DA
:102D6000204600F0C7F8204600F064F900202077E4
:102D700020680069C0F3C000D8B12068C068C0F303
:102D8000C000B0B16FF0080021680861042020770E
:102D90002068C06900F0030018B12046FFF7E2FE8A
:102DA00005E0204600F0A6F8204600F043F9002098
:102DB000207720680069C0F30010D8B12068C0688F
:102DC000C0F30010B0B16FF0100021680861082056
:102DD00020772068C06900F4407018B12046FFF7E2
:102DE000C1FE05E0204600F085F8204600F022F9FB
:102DF000002020772068006900F0010058B12068A9
:102E0000C06800F0010030B16FF001002168086176
:102E1000204600F031F920680069C0F3C01058B1B5
:102E20002068C068C0F3C01030B16FF08000216826
:102E300008612046FFF735FD20680069C0F3801067
:102E400058B12068C068C0F3801030B16FF0400006
:102E500021680861204600F010F920680069C0F37D
:102E6000401058B12068C068C0F3401030B16FF016
:102E70002000216808612046FFF714FD10BD000006
:102E80001FB504462068B0F1804F1DD14FF40040BB
:102E9000009002200190039069461248FEF7B0FDB1
:102EA0000820009002200190039069460E48FEF72A
:102EB000A7FD00BF0D49486820F4407040F0E06075
:102EC00040F4807048600CE009492068884208D1CD
:102ED0000320009002200190039069460248FEF70B
:102EE0008FFD1FBD00080140000C014000000140A3
:102EF00000040040704770B504460D46164600BFFA
:102F000094F83C00012801D1022070BD012084F812
:102F10003C0000BF022084F83D0036B1042E1BD0D7
:102F2000082E31D00C2E5ED145E02946206801F0F4
:102F300023F82068806940F00800216888612068D3
:102F4000806920F00400216888612068806929690F
:102F500008432168886147E02946206801F03EF86F
:102F60002068806940F40060216888612068806979
:102F700020F480602168886120688069296940EABE
:102F80000120216888612FE02946206801F05EF861
:102F90002068C06940F008002168C8612068C069E5
:102FA00020F004002168C8612068C06929690843CD
:102FB0002168C86118E02946206801F07DF8206882
:102FC000C06940F400602168C8612068C06920F4CD
:102FD00080602168C8612068C069296940EA0120D1
:102FE0002168C86100E000BF00BF012084F83D00F7
:102FF00000BF002084F83C0000BF00BF85E710B58B
:1030000004460CB9012010BD94F83D0028B90020F9
:1030100084F83C00204600F00CF8022084F83D00C3
:10302000211D206800F04AFF012084F83D000020A7
:10303000E9E770477047000030B504460D460122AD
:103040002946206800F074FF0A492068884201D1AF
:10305000012000E0002028B12068406C40F40040CE
:10306000216848642068006840F001002168086019
:10307000002030BD002C01407047704770470000B1
:103080002DE9F0470446206805682068C668206876
:1030900047694FF00008C14605F00F08B8F1000F6E
:1030A0000AD105F0200038B106F0200020B12046FA
:1030B00001F013F9BDE8F087B8F1000F6DD007F00B
:1030C000010018B906F49070002866D005F00100E0
:1030D00030B106F4807018B1E06B40F00100E0639D
:1030E00005F0040030B107F0010018B1E06B40F0CA
:1030F0000200E06305F0020030B107F0010018B1F2
:10310000E06B40F00400E06305F0080030B107F028
:10311000010018B1E06B40F00800E063E06B68B3B9
:1031200005F0200028B106F0200010B1204601F083
:10313000D4F820684069C0F38019E06B00F0080003
:1031400010B9B9F1000F22D0204601F0A6F820688E
:10315000406900F04000B0B12068406920F04000B4
:1031600021684861606B50B11748616B4863606BC0
:10317000FEF79AFA10B1606B416B88470CE020466D
:10318000FFF77CFF08E02046FFF778FF04E02046C9
:10319000FFF774FF0020E0638CE705F0800030B19A
:1031A00006F0800018B1204601F0CEF982E705F064
:1031B000400030B106F0400018B1204601F07DF823
:1031C00078E700BF76E700008742000810B50446A4
:1031D0000CB9012010BDA06900B100E000BF94F857
:1031E000390028B9002084F83800204600F028F87B
:1031F000242084F839002068C06820F40050216839
:10320000C860204601F0BCF82068006920F49040B6
:10321000216808612068406920F02A00216848611F
:103220002068C06840F400502168C8600020E06356
:10323000202084F8390084F83A000020CAE7000012
:1032400010B586B004461849206888422AD100BFCC
:103250001648806940F480401449886108468069B6
:1032600000F48040019000BF00BF4815029002208A
:1032700003900320059002A90D48FEF7C1FB4FF40F
:1032800080600290002003900120049002A9084869
:10329000FEF7B6FB002211462520FEF7F2FD2520A1
:1032A000FEF7E2FD06B010BD0038014000100240FC
:1032B0000008014010B5034693F83A0020282FD1AA
:1032C00001B10AB9012010BD00BF93F838000128F0
:1032D00001D10220F7E7012083F8380000BF99628E
:1032E0009A85DA850020D863222083F83A0000BF4F
:1032F000002083F8380000BF1868C06840F4807070
:103300001C68E0601868406940F001001C6860615A
:103310001868C06840F020001C68E0600020D2E718
:103320000220D0E710B5044604492068884204D141
:10333000012203490348FFF7BDFF10BD00380140DB
:1033400008000020A8010020704700BFFEE7000031
:1033500000B585B000BF1048806940F008000E49F4
:1033600088610846806900F00800009000BF00BF37
:10337000C02001900120029003900320049001A935
:103380000648FEF73DFB0120054908600549C1F8E4
:10339000980105B000BD000000100240000C014083
:1033A0009C8121420080214270B504461548006886
:1033B00020F07040134908600846006840F0405013
:1033C0000860002010490860002517E0E0090E4958
:1033D000091D08606006040E022001F01BF901209F
:1033E0000A49C1F89801022001F014F900200649A9
:1033F0000860022001F00EF9681CC5B2082DE5DB5B
:1034000070BD0000000C01409881214200802142E3
:1034100010B50F48006820F070400D49086008465C
:10342000006840F04050086001200A4908600A49DD
:10343000C1F89801042001F0EDF80020054908606A
:10344000042001F0E7F800200349C1F8980110BDFD
:10345000000C01409C8121420080214210B50F48A0
:10346000006820F070400D4908600846006840F090
:103470004050086000200A4908600A49C1F89C01D0
:10348000042001F0C7F8012005490860042001F07C
:10349000C1F801200349C1F89C0110BD000C014096
:1034A000988121420080214210B500241448006810
:1034B00020F07040124908600846006840F0004063
:1034C000086001200F49086001F0A4F801200E49AE
:1034D000C1F8980101F09EF807E0601CC4B2FA2C14
:1034E00003DDFFF7BBFF012010BD064880380068F0
:1034F0000028F2D10349091F086000BFF4E700006B
:10350000000C01409C8121420080214210B5FFF750
:103510001FFF10BD70B50446200341F2883190FBB7
:10352000F1F085B205F470600612FFF771FFC2205A
:10353000FFF73AFFFFF7B8FF3046FFF735FFFFF719
:10354000B3FFE8B2FFF730FFFFF7AEFFFFF786FFEC
:1035500070BD70B50446200341F2883190FBF1F054
:1035600085B205F470600612FFF752FFC020FFF726
:103570001BFFFFF799FF3046FFF716FFFFF794FF99
:10358000E8B2FFF711FFFFF78FFFFFF767FF70BD8E
:1035900010B500200F4908600F48006820F4704003
:1035A0000D4908600846006840F44050086000205B
:1035B0000A49C1F8AC01022001F02CF801200549AC
:1035C0000860022001F026F800200449C1F8A80193
:1035D00010BD0000A8812142040C0140008021425E
:1035E00000B585B000BF1048806940F008000E4962
:1035F00088610846806900F00800009000BF00BFA5
:103600004FF4406001900120029003900320049049
:1036100001A90648FEF7F4F90120054908600549AB
:10362000C1F8A80105B000BD00100240000C014027
:10363000AC8121420080214210B500200F49086072
:103640000F48006820F470400D4908600846006883
:1036500040F44050086001200A49C1F8AC01022042
:1036600000F0D8FF012005490860022000F0D2FFD9
:1036700000200449C1F8A80110BD0000A881214222
:10368000040C01400080214270B505460024174813
:10369000006820F47040154908600846006840F44E
:1036A00000400860002616E0002011490860022052
:1036B00000F0B0FF01200F49C1F8A8016006040E18
:1036C0000B487C38006808B1601CC4B2012000F0CF
:1036D000A1FF701CC6B2082EE6DB15B9FFF7ACFFE0
:1036E00001E0FFF755FF204670BD0000040C0140CB
:1036F000A88121420080214270B504461548006827
:1037000020F47040134908600846006840F44050B7
:103710000860002010490860002517E0E0090E4904
:10372000091D08606006040E022000F073FF0120EE
:103730000A49C1F8A801022000F06CFF00200649E8
:103740000860022000F066FF681CC5B2082DE5DBAA
:1037500070BD0000040C0140A8812142008021427C
:1037600010B50F48006820F470400D490860084605
:10377000006840F44050086001200A4908600A4986
:10378000C1F8A801042000F045FF002005490860A9
:10379000042000F03FFF00200349C1F8A80110BD3C
:1037A000040C0140AC8121420080214210B50F4839
:1037B000006820F470400D4908600846006840F435
:1037C0004050086000200A4908600A49C1F8AC016D
:1037D000042000F01FFF012005490860042000F0CC
:1037E00019FF01200349C1F8AC0110BD040C0140D0
:1037F000A88121420080214210B5002414480068AD
:1038000020F47040124908600846006840F4004007
:10381000086001200F49086000F0FCFE01200E49FD
:10382000C1F8A80100F0F6FE07E0601CC4B2FA2C53
:1038300003DDFFF7BBFF012010BD0648803800689C
:103840000028F2D10349091F086000BFF4E7000017
:10385000040C0140AC8121420080214270B5044635
:103860000D46FFF77DFF002141EA4401C8B2FFF792
:1038700043FFFFF7C1FF2846FFF73EFFFFF7BCFFFE
:10388000FFF76EFF012101EB4401C8B2FFF734FFDF
:10389000FFF7B2FF0020FFF7F7FE0646FFF786FFAF
:1038A000304670BD10B5FFF79BFE03210620FFF7E1
:1038B000D5FF0446062C01D1002010BD0120FCE7F5
:1038C0000EB51A481A49086081151948816001210E
:1038D000C160002141614FF46021C16100201449A1
:1038E0004860022112480161FDF7C4F918B1452171
:1038F00010A000F067FE01200090019005200290CA
:1039000069460B48FDF772F818B14F2109A000F085
:1039100059FE02200090019069460548FDF766F8BF
:1039200018B1582103A000F04DFE0EBD0024014047
:10393000300000202E2E2F5372632F6164632E639C
:103940000000000010B50F480F49086009204860CA
:1039500000210D488160C1604FF4003101614FF4D6
:103960004011416100218161C16101624162816256
:10397000C162FDF7F9FC18B1452104A000F022FE58
:1039800010BD000000640040A40000202E2E2F5324
:1039900072632F63616E2E630000000008B500BFE4
:1039A0000A48406940F001000849486108464069FA
:1039B00000F00100009000BF00BF002211460B2064
:1039C000FEF75FFA0B20FEF74FFA08BD0010024029
:1039D00000B585B000BF2E48806940F010002C492A
:1039E00088610846806900F01000009000BF00BFA9
:1039F00000BF0846806940F0200088610846806961
:103A000000F02000009000BF00BF00BF08468069A2
:103A100040F0040088610846806900F004000090CE
:103A200000BF00BF00BF0846806940F00800886101
:103A30000846806900F00800009000BF00BF012226
:103A400010211448FEF76AF94FF4604001900020FD
:103A500002900120039001A90F48FDF7D1FF4FF418
:103A60004C600190122002900320049001A90948A3
:103A7000FDF7C6FF10200190012002900020039066
:103A80000320049001A90348FDF7BAFF05B000BD6B
:103A900000100240000C01400010014000B587B04A
:103AA0001748184908604720486000211548816080
:103AB00040F2E731C1600021016141618161FEF79F
:103AC00023FF18B1442110A000F07CFD4FF480507A
:103AD000039003A90B48FEF7ACFF18B14A210AA0D6
:103AE00000F070FD00200190029001A90548FEF74A
:103AF000DAFE18B1512104A000F064FD07B000BD4A
:103B0000002C0140E80000202E2E2F5372632F74EA
:103B1000696D2E630000000000B591B04FF0804049
:103B200036490860002048600021344881604FF425
:103B30007A71C160002101618161FEF7E5FE18B173
:103B400065212FA000F03EFD4FF480500D900DA98F
:103B50002A48FEF76EFF18B16B2129A000F032FD54
:103B60002648FFF74CFA18B1702125A000F02AFD75
:103B70002248FFF768F818B1752121A000F022FD56
:103B800000200B900C900BA91C48FEF78CFE18B17E
:103B90007C211BA000F016FD602004900020059001
:103BA00006900890002204A91448FFF7A4F918B160
:103BB000852113A000F006FD042204A90F48FFF799
:103BC0009AF918B18A210EA000F0FCFC00200090A8
:103BD0000120019008200290022003900C226946E7
:103BE0000648FEF7C0FF18B1932105A000F0EAFCDB
:103BF0000248FFF745F911B000BD00002801002080
:103C00002E2E2F5372632F74696D2E6300000000F7
:103C100000B58DB029482A4908600020486000217D
:103C2000274881604FF47A71C16000210161816190
:103C3000FEF76AFE18B1A82122A000F0C3FC4FF4E1
:103C40008050099009A91E48FEF7F3FE18B1AE2175
:103C50001CA000F0B7FC1A48FFF7D1F918B1B32146
:103C600018A000F0AFFC00200790089007A91448A6
:103C7000FEF719FE18B1BA2112A000F0A3FC6020D3
:103C800000900020019002900490082269460C48A0
:103C9000FFF731F918B1C3210AA000F093FC0C2200
:103CA00069460748FFF727F918B1C82105A000F0B9
:103CB00089FC0348FFF7E4F80DB000BD00040040A4
:103CC000680100202E2E2F5372632F74696D2E63AE
:103CD0000000000010B50C480C4908604FF4E130BA
:103CE0004860002109488160C16001610C21416187
:103CF00000218161C161FFF769FA18B1422104A076
:103D000000F060FC10BD000000380140A801002058
:103D10002E2E2F5372632F75736172742E63000001
:103D200000BFFEE77047000002480068C0F30220B1
:103D3000704700000CED00E010B5002807DA0A0714
:103D4000140E054A00F00F031B1FD45403E00A07AA
:103D5000130E024A135410BD18ED00E000E400E019
:103D60007047000008B508490968C9084FF47A721D
:103D7000B1FBF2F14143009100BF00BF00994A1E20
:103D800000920029F9D108BD1C000020704710B531
:103D9000FDF7D0FFFEF781FD10BD000010B594B017
:103DA00001200A9000040B9000200C9001200E903E
:103DB00002201190C10312914FF4E01113910AA84F
:103DC000FEF71CFB18B1D1211AA000F0FBFB0F205D
:103DD000059002200690002007904FF48060089024
:103DE00000200990022105A8FEF7C6F918B1DF21CD
:103DF00010A000F0E7FB022001908003039001A8CF
:103E0000FEF722F918B1E6210AA000F0DBFBFEF76D
:103E100085FA4FF47A71B0FBF1F42046FEF723FDEA
:103E20000420FEF70BFD00221146501EFEF729F874
:103E300014B010BD2E2E2F5372632F6D61696E2E3C
:103E4000630000001148006840F001000F4908605D
:103E5000084640680E4908400C494860084600681A
:103E60000C490840094908600846006820F4802091
:103E700008600846406820F4FE0048604FF41F00C8
:103E80008860C803044908607047000000100240C1
:103E90000000FFF8FFFFF6FE08ED00E010B5024855
:103EA000FEF722FF10BD0000E800002010B5024818
:103EB000FEF71AFF10BD0000280100200022026852
:103EC000184B984208D0B0F1804F05D0164B98425D
:103ED00002D0164B984203D122F070024B681A436D
:103EE000104B984208D0B0F1804F05D00E4B98424D
:103EF00002D00E4B984203D122F44072CB681A4391
:103F000022F080024B691A4302608B68C3620B681F
:103F10008362044B984201D10B690363012343611F
:103F200070470000002C01400004004000080040E1
:103F300030B50023012404FA01F3046A9C430462AF
:103F4000046A02FA01F52C43046230BD30B50C4618
:103F50000021816821F47F4142EA0325254329435A
:103F6000816030BD0A460021816821F0700142F075
:103F7000070319438160704730B5002400220023F5
:103F8000056A25F001050562026A4368846924F028
:103F9000700424F003040D682C4322F002028D68A3
:103FA0002A430D4DA84206D100BF22F00802CD6879
:103FB0002A4322F00402084DA84207D123F480735B
:103FC00023F400734D692B438D692B434360846157
:103FD0004D684563026230BD002C014030B50024BD
:103FE00000220023056A25F010050562026A436875
:103FF000846924F4E04424F440740D6844EA052400
:1040000022F020028D6842EA05120F4DA84207D126
:1040100000BF22F08002CD6842EA051222F0400281
:10402000094DA84209D123F4806323F400634D694C
:1040300043EA85038D6943EA8503436084614D68E3
:104040008563026230BD0000002C014030B50024C1
:1040500000220023056A25F480750562026A436820
:10406000C46924F0700424F003040D682C4322F486
:1040700000728D6842EA05220E4DA84207D100BFAA
:1040800022F40062CD6842EA052222F48062094DE2
:10409000A84209D123F4805323F400534D6943EA25
:1040A00005138D6943EA05134360C4614D68C56318
:1040B000026230BD002C014030B5002200230024F4
:1040C000056A25F480550562036A4468C26922F4D2
:1040D000E04222F440720D6842EA052223F40053C4
:1040E0008D6843EA0533074DA84204D124F4804487
:1040F0004D6944EA85144460C2614D6805640362F9
:1041000030BD0000002C014030B50B4614460021A4
:104110000022026A056A25F001050562816921F025
:10412000F00141EA041122F00A021A43816102629D
:1041300030BD000070B50C46154600210022066A0D
:1041400026F0010606628169026A124EB04208D06A
:10415000B0F1804F05D0104EB04202D00F4EB042A9
:1041600001D1012600E000261EB121F00301294300
:1041700001E041F0010121F0F001F02606EA03160A
:10418000314322F00A0204F00A06324381610262DE
:1041900070BD0000002C01400004004000080040F9
:1041A00030B50B46144600210022056A25F01005A3
:1041B00005628169026A21F4704141EA043122F00A
:1041C000A00242EA03128161026230BD70B50C4662
:1041D000154600210022066A26F010060662816953
:1041E000026A21F4407141EA052121F470414FF443
:1041F000704606EA0336314322F0A002A02606EA02
:10420000041632438161026270BD70B50C461546DA
:1042100000210022066A26F480760662C169026ADD
:1042200021F00301294321F0F001F02606EA0316EC
:10423000314322F420624FF4206606EA042632431A
:10424000C161026270BD70B50C46154600210022A6
:10425000066A26F480560662C169026A21F440713A
:1042600041EA052121F470414FF4704606EA033615
:10427000314322F400524FF4005606EA043632432A
:10428000C161026270BD70B505466C6A0020E085B0
:10429000E0842046FEF7F2FE70BD0168C96821F493
:1042A00090710268D1600168496921F001010268DA
:1042B0005161202180F83A10704710B504462068FB
:1042C000C06820F040002168C860202084F83900D0
:1042D0002046FFF739F8002010BD70B5044694F869
:1042E0003A0022284AD1A068B0F5805F13D1A56AB0
:1042F000206940B920684068C0F308002880A06A9F
:10430000801CA06219E020684068C0B22880A06AC2
:10431000401CA06211E0206938B920684068C1B231
:10432000A26A501CA062117007E02068406800F08B
:104330007F01A26A501CA0621170E08D401E80B205
:10434000E085C8B92068C06820F020002168C860F6
:104350002068C06820F480702168C86020684069C7
:1043600020F0010021684861202084F83A002046AE
:10437000FEF7D8FF002070BD0020FCE70220FAE71E
:104380002DE9F041044600252068006920F44050E2
:10439000E1680843216808612169A06808436169F0
:1043A000084305432068C06841F20C6188432843F4
:1043B0002168C8602068406920F44070A169084302
:1043C000216848615F49206888425CD1FDF7BCFFE5
:1043D00000EBC00101EB001061688900B0FBF1F651
:1043E000FDF7B2FF00EBC00101EB0010616889002E
:1043F000B0FBF1F06421B0FBF1F000EBC00101EB88
:104400000010A6EB8000322101EB00106421B0FB0C
:10441000F1F000F0F006FDF797FF00EBC00101EBB3
:10442000001061688900B0FBF1F06421B0FBF1F08D
:1044300006EB0016FDF788FF00EBC00101EB001052
:1044400061688900B0FBF1F7FDF77EFF00EBC0016A
:1044500001EB001061688900B0FBF1F06421B0FB52
:10446000F1F000EBC00101EB0010A7EB800032215E
:1044700001EB00106421B0FBF1F000F00F003044BC
:10448000216888605BE0FDF74FFF00EBC00101EBA6
:10449000001061688900B0FBF1F6FDF745FF00EB05
:1044A000C00101EB001061688900B0FBF1F06421EC
:1044B000B0FBF1F000EBC00101EB0010A6EB8000B7
:1044C000322101EB00106421B0FBF1F000F0F006A6
:1044D000FDF72AFF00EBC00101EB001061688900C5
:1044E000B0FBF1F06421B0FBF1F006EB0016FDF734
:1044F0001BFF00EBC00101EB001061688900B0FBFD
:10450000F1F7FDF711FF00EBC00101EB001061684E
:104510008900B0FBF1F06421B0FBF1F000EBC001C9
:1045200001EB0010A7EB8000322101EB00106421A9
:10453000B0FBF1F000F00F00304421688860BDE866
:10454000F081000000380140014691F8390021282F
:104550002CD18868B0F5805F0FD10A6A1088C0F34B
:1045600008000B685860086918B9086A801C08625E
:1045700009E0086A401C086205E00B6A581C0862E2
:1045800018780B685860C88C401E80B2C88458B92F
:104590000868C06820F080000B68D8600868C068B0
:1045A00040F040000B68D860002070470220FCE714
:1045B00010B50248FEF764FD10BD0000A801002000
:1045C00000BFFEE700BFFEE702E008C8121F08C1F7
:1045D000002AFAD170477047002001E001C1121F84
:1045E000002AFBD17047000010B504460420FEF7F6
:1045F00025F90148046010BD2C00002030B50446A8
:10460000002504E04FF47A7000F004F86D1CA54218
:10461000F8D330BD70B5034600224FF0E02675692F
:104620000D4E366803FB06F44FF0E026B16910E04A
:104630004FF0E026B06988420BD0884202D20E1AB1
:10464000324402E02E1A0E4432440146A24200D304
:1046500000E0EDE700BF70BD2C000020FDF776FB09
:10466000FFF79CFBFFF7B4F9FFF798F9FFF732FB70
:10467000FFF768F9FFF724F9FFF7CAFAFFF74CFADA
:10468000FFF70CFA4820FFF7AFFFFBF7D7FF3048E2
:10469000FCF728F900212F48FEF7CEFC04212D4815
:1046A000FEF7CAFC08212C48FEF7C6FC0C212A485C
:1046B000FEF7C2FC2948FEF7ADF901222849294836
:1046C000FEF7F8FD01212848FCF740FF02222749A8
:1046D0001F48FCF7CBFB0C211E48FEF7CFFAFFF773
:1046E000E1F8FEF713FF4FF4FA60FFF787FF0020B1
:1046F0004FF0804148634FF47A70886340001C4952
:1047000008600020091D0860FEF704FF4FF47A706E
:10471000FFF774FF41F27E30FEF7FCFE41F27E307F
:10472000FEF717FF13E011490868FBF7ECFD06469A
:104730004FF066320F4BFBF705FD044600220E4B8F
:10474000FBF772FD8046FBF7EBFD0C490860EAE7DA
:10475000300000202801002068010020E80000202F
:1047600008000020A8010020A40000200000002074
:104770003C04004066660A400000B0400C00002087
:104780000000000000000000010203040607080901
:104790000000000001020304B847000800000020E8
:1047A00030000000C8450008E8470008300000203D
:1047B000F8050000D84500080000000000000000D7
:1047C00000000000000000000000000010000000D9
:1047D0000100000000A24A040000000000000000E8
:0847E0000105000000000000CB
:04000005080000ED02
:00000001FF
